:1000000012C01FC01EC01DC01CC01BC01AC04CC0E7
:1000100018C017C016C015C014C013C012C011C03C
:1000200010C00FC00EC011241FBECFEDCDBF10E019
:10003000A0E6B0E001C01D92A336B107E1F786D07B
:100040008CC0DECF80E490E09093620080936100EA
:1000500012B88091610089B988E98AB986E383B9C9
:1000600008955D9BFECF8CB908955F9B02C08CB153
:10007000FCCF08958091600091E089278093600013
:1000800080916000882319F088B3886102C088B32A
:10009000877E88BB2FEB86EC9DE22150804090400C
:1000A000E1F700C00000E1CF1F920F920FB60F9250
:1000B00011242F933F934F935F936F937F938F936D
:1000C0009F93AF93BF93CF93EF93FF93CCB1F894EB
:1000D000CF3321F0C43551F4CDDF0CC080916000E6
:1000E000882311F081E305C080E303C08FE3B9DF0B
:1000F0008C2FB7DF7894FF91EF91CF91BF91AF91A3
:100100009F918F917F916F915F914F913F912F912F
:100110000F900FBE0F901F90189587B3886187BB13
:10012000C49A80E895E28EDF2FEB86EC9DE22150A9
:1001300080409040E1F700C000008FE492DF8BE444
:1001400090DF88B390E1892788BB0895E6DF789433
:0E015000B19BFECFF8948EDFFACFF894FFCF6C
:00000001FF
